:100000000C942A000C9434000C9434000C943400AA
:100010000C9434000C9434000C9434000C94340090
:100020000C9434000C9434000C9434000C94340080
:100030000C9434000C9434000C9434000C94340070
:100040000C9434000C9434000C9434000C94340060
:100050000C94340011241FBECFE5D8E0DEBFCDBF25
:100060000E9436000C949F000C94000087B38860B7
:1000700087BB84B3846084BB84B3806884BB81B352
:10008000806481BB81B38B7F81BB81B3877F81BB60
:1000900081B38F7781BB0CC088B3886088BB85B380
:1000A000846085BB85B3806885BB82B3806482BB76
:1000B000829BF2CF0CC088B3877F88BB85B38B7FD0
:1000C00085BB85B38F7785BB82B38F7B82BB839BD8
:1000D000F2CF8799EDCF98B388E0892788BB2FEFBF
:1000E00089E698E1215080409040E1F700C000008F
:1000F00095B384E0892785BB2FEF89E698E12150ED
:1001000080409040E1F700C0000085B3805885BB77
:100110002FEF89E698E1215080409040E1F700C040
:10012000000092B380E4892782BB2FEF89E698E133
:10013000215080409040E1F700C00000B9CFF89412
:02014000FFCFEF
:00000001FF
