S00F000037636C69636B732E7372656365
S11300000C942A000C9434000C9434000C943400A6
S11300100C9434000C9434000C9434000C9434008C
S11300200C9434000C9434000C9434000C9434007C
S11300300C9434000C9434000C9434000C9434006C
S11300400C9434000C9434000C9434000C9434005C
S11300500C94340011241FBECFE5D8E0DEBFCDBF21
S11300600E945B000C9495000C94000080FF04C077
S113007098B3986098BB03C098B3977F98BB81FFEF
S113008004C095B3946095BB03C095B39B7F95BBA7
S113009082FF04C095B3906895BB03C095B39F7766
S11300A095BB83FF04C082B3806482BB089582B38E
S11300B08F7B82BB089587B3886087BB84B38460D9
S11300C084BB84B3806884BB81B3806481BB81B307
S11300D08B7F81BB82B3846082BBC0E08299FECFF8
S11300E02FEF80E792E0215080409040E1F700C07C
S11300F000008299F3CF8C2F90E00196877090785E
S1130100992324F40197886F9F6F0196C82F0E944A
S11301103600829BFECF2FEF80E792E02150804093
S11101209040E1F700C00000D9CFF894FFCF63
S9030000FC
